{
  "_format": "hh-sol-artifact-1",
  "contractName": "P2PEscrow",
  "sourceName": "contracts/P2PEscrow.sol",
  "abi": [
    {
      "inputs": [],
      "stateMutability": "payable",
      "type": "constructor"
    },
    {
      "inputs": [],
      "name": "ReentrancyGuardReentrantCall",
      "type": "error"
    },
    {
      "inputs": [
        {
          "internalType": "address",
          "name": "token",
          "type": "address"
        }
      ],
      "name": "SafeERC20FailedOperation",
      "type": "error"
    },
    {
      "anonymous": false,
      "inputs": [
        {
          "indexed": false,
          "internalType": "string",
          "name": "actionType",
          "type": "string"
        },
        {
          "indexed": true,
          "internalType": "address",
          "name": "executor",
          "type": "address"
        }
      ],
      "name": "Action",
      "type": "event"
    },
    {
      "anonymous": false,
      "inputs": [
        {
          "indexed": true,
          "internalType": "address",
          "name": "buyer",
          "type": "address"
        },
        {
          "indexed": true,
          "internalType": "address",
          "name": "seller",
          "type": "address"
        },
        {
          "indexed": false,
          "internalType": "uint256",
          "name": "escrowFee",
          "type": "uint256"
        },
        {
          "indexed": false,
          "internalType": "uint256",
          "name": "totalTradingCost",
          "type": "uint256"
        }
      ],
      "name": "TradeActive",
      "type": "event"
    },
    {
      "anonymous": false,
      "inputs": [
        {
          "indexed": true,
          "internalType": "address",
          "name": "buyer",
          "type": "address"
        },
        {
          "indexed": true,
          "internalType": "address",
          "name": "seller",
          "type": "address"
        }
      ],
      "name": "TradeCompleted",
      "type": "event"
    },
    {
      "anonymous": false,
      "inputs": [
        {
          "indexed": true,
          "internalType": "address",
          "name": "buyer",
          "type": "address"
        },
        {
          "indexed": true,
          "internalType": "address",
          "name": "spender",
          "type": "address"
        },
        {
          "indexed": false,
          "internalType": "uint256",
          "name": "amount",
          "type": "uint256"
        }
      ],
      "name": "Transfer",
      "type": "event"
    },
    {
      "inputs": [
        {
          "internalType": "contract IERC20",
          "name": "_token",
          "type": "address"
        },
        {
          "internalType": "uint256",
          "name": "_tradeId",
          "type": "uint256"
        }
      ],
      "name": "completeTrade",
      "outputs": [
        {
          "internalType": "bool",
          "name": "success_",
          "type": "bool"
        }
      ],
      "stateMutability": "nonpayable",
      "type": "function"
    },
    {
      "inputs": [],
      "name": "escrowBal",
      "outputs": [
        {
          "internalType": "uint256",
          "name": "",
          "type": "uint256"
        }
      ],
      "stateMutability": "view",
      "type": "function"
    },
    {
      "inputs": [
        {
          "internalType": "contract IERC20",
          "name": "_token",
          "type": "address"
        },
        {
          "internalType": "address",
          "name": "_seller",
          "type": "address"
        },
        {
          "internalType": "string[]",
          "name": "_products",
          "type": "string[]"
        },
        {
          "internalType": "uint256[]",
          "name": "_productPrices",
          "type": "uint256[]"
        },
        {
          "internalType": "uint256",
          "name": "_logisticFee",
          "type": "uint256"
        }
      ],
      "name": "openTrade",
      "outputs": [
        {
          "internalType": "bool",
          "name": "success_",
          "type": "bool"
        }
      ],
      "stateMutability": "nonpayable",
      "type": "function"
    },
    {
      "inputs": [
        {
          "internalType": "uint256",
          "name": "_tradeId",
          "type": "uint256"
        }
      ],
      "name": "shipProducts",
      "outputs": [
        {
          "internalType": "bool",
          "name": "success_",
          "type": "bool"
        }
      ],
      "stateMutability": "nonpayable",
      "type": "function"
    },
    {
      "inputs": [],
      "name": "tradeCount",
      "outputs": [
        {
          "internalType": "uint256",
          "name": "",
          "type": "uint256"
        }
      ],
      "stateMutability": "view",
      "type": "function"
    }
  ],
  "bytecode": "0x6080604052600160008190555033600160006101000a81548173ffffffffffffffffffffffffffffffffffffffff021916908373ffffffffffffffffffffffffffffffffffffffff1602179055506000600260006101000a81548173ffffffffffffffffffffffffffffffffffffffff021916908373ffffffffffffffffffffffffffffffffffffffff16021790555061274d8061009e6000396000f3fe608060405234801561001057600080fd5b50600436106100575760003560e01c8063588c6f121461005c5780639df7aeda1461008c578063bd55022a146100aa578063c235d61e146100c8578063d3f585a3146100f8575b600080fd5b610076600480360381019061007191906116d9565b610128565b6040516100839190611721565b60405180910390f35b610094610567565b6040516100a1919061174b565b60405180910390f35b6100b261056d565b6040516100bf919061174b565b60405180910390f35b6100e260048036038101906100dd91906117d6565b610573565b6040516100ef9190611721565b60405180910390f35b610112600480360381019061010d9190611b31565b610b92565b60405161011f9190611721565b60405180910390f35b60008073ffffffffffffffffffffffffffffffffffffffff163373ffffffffffffffffffffffffffffffffffffffff1603610198576040517f08c379a000000000000000000000000000000000000000000000000000000000815260040161018f90611c41565b60405180910390fd5b60006005600084815260200190815260200160002060405180610120016040529081600082015481526020016001820160009054906101000a900473ffffffffffffffffffffffffffffffffffffffff1673ffffffffffffffffffffffffffffffffffffffff1673ffffffffffffffffffffffffffffffffffffffff1681526020016002820160009054906101000a900473ffffffffffffffffffffffffffffffffffffffff1673ffffffffffffffffffffffffffffffffffffffff1673ffffffffffffffffffffffffffffffffffffffff16815260200160038201805480602002602001604051908101604052809291908181526020016000905b8282101561036257838290600052602060002090600202016040518060400160405290816000820180546102c790611c90565b80601f01602080910402602001604051908101604052809291908181526020018280546102f390611c90565b80156103405780601f1061031557610100808354040283529160200191610340565b820191906000526020600020905b81548152906001019060200180831161032357829003601f168201915b5050505050815260200160018201548152505081526020019060010190610294565b5050505081526020016004820154815260200160058201548152602001600682015481526020016007820160009054906101000a900460ff1660048111156103ad576103ac611cc1565b5b60048111156103bf576103be611cc1565b5b81526020016007820160019054906101000a900460ff1660028111156103e8576103e7611cc1565b5b60028111156103fa576103f9611cc1565b5b8152505090506000816020015190508073ffffffffffffffffffffffffffffffffffffffff163373ffffffffffffffffffffffffffffffffffffffff1614610477576040517f08c379a000000000000000000000000000000000000000000000000000000000815260040161046e90611d3c565b60405180910390fd5b6002600481111561048b5761048a611cc1565b5b8260e0015160048111156104a2576104a1611cc1565b5b146104e2576040517f08c379a00000000000000000000000000000000000000000000000000000000081526004016104d990611dce565b60405180910390fd5b600182610100019060028111156104fc576104fb611cc1565b5b908160028111156105105761050f611cc1565b5b815250508073ffffffffffffffffffffffffffffffffffffffff167f99d7758cc63ce23b119169e1f8b2dddd7f3cd69cecac309a26f03e31832011aa60405161055890611e3a565b60405180910390a25050919050565b60035481565b60045481565b60008073ffffffffffffffffffffffffffffffffffffffff163373ffffffffffffffffffffffffffffffffffffffff16036105e3576040517f08c379a00000000000000000000000000000000000000000000000000000000081526004016105da90611c41565b60405180910390fd5b60006005600084815260200190815260200160002060405180610120016040529081600082015481526020016001820160009054906101000a900473ffffffffffffffffffffffffffffffffffffffff1673ffffffffffffffffffffffffffffffffffffffff1673ffffffffffffffffffffffffffffffffffffffff1681526020016002820160009054906101000a900473ffffffffffffffffffffffffffffffffffffffff1673ffffffffffffffffffffffffffffffffffffffff1673ffffffffffffffffffffffffffffffffffffffff16815260200160038201805480602002602001604051908101604052809291908181526020016000905b828210156107ad578382906000526020600020906002020160405180604001604052908160008201805461071290611c90565b80601f016020809104026020016040519081016040528092919081815260200182805461073e90611c90565b801561078b5780601f106107605761010080835404028352916020019161078b565b820191906000526020600020905b81548152906001019060200180831161076e57829003601f168201915b50505050508152602001600182015481525050815260200190600101906106df565b5050505081526020016004820154815260200160058201548152602001600682015481526020016007820160009054906101000a900460ff1660048111156107f8576107f7611cc1565b5b600481111561080a57610809611cc1565b5b81526020016007820160019054906101000a900460ff16600281111561083357610832611cc1565b5b600281111561084557610844611cc1565b5b81525050905060008160400151905060008260200151905060048360e00190600481111561087657610875611cc1565b5b9081600481111561088a57610889611cc1565b5b815250508173ffffffffffffffffffffffffffffffffffffffff163373ffffffffffffffffffffffffffffffffffffffff16146108fc576040517f08c379a00000000000000000000000000000000000000000000000000000000081526004016108f390611d3c565b60405180910390fd5b6002836101000190600281111561091657610915611cc1565b5b9081600281111561092a57610929611cc1565b5b8152505060008360a0015184608001518560c001516109499190611e89565b6109539190611e89565b90508360c001518773ffffffffffffffffffffffffffffffffffffffff166370a08231600260009054906101000a900473ffffffffffffffffffffffffffffffffffffffff166040518263ffffffff1660e01b81526004016109b59190611ecc565b602060405180830381865afa1580156109d2573d6000803e3d6000fd5b505050506040513d601f19601f820116820180604052508101906109f69190611efc565b1015610a37576040517f08c379a0000000000000000000000000000000000000000000000000000000008152600401610a2e90611f75565b60405180910390fd5b60016002811115610a4b57610a4a611cc1565b5b8461010001516002811115610a6357610a62611cc1565b5b14610aa3576040517f08c379a0000000000000000000000000000000000000000000000000000000008152600401610a9a90612007565b60405180910390fd5b610ace82828973ffffffffffffffffffffffffffffffffffffffff166114b79092919063ffffffff16565b610b2e600160009054906101000a900473ffffffffffffffffffffffffffffffffffffffff168560a001518660800151610b089190612027565b8973ffffffffffffffffffffffffffffffffffffffff166114b79092919063ffffffff16565b8173ffffffffffffffffffffffffffffffffffffffff168373ffffffffffffffffffffffffffffffffffffffff167f84c16ec10613b415cf0a1ed7e8e7691e45b524e67a6664c56f3e3e728d7ecfea60405160405180910390a35050505092915050565b60008073ffffffffffffffffffffffffffffffffffffffff163373ffffffffffffffffffffffffffffffffffffffff1603610c02576040517f08c379a0000000000000000000000000000000000000000000000000000000008152600401610bf990611c41565b60405180910390fd5b8473ffffffffffffffffffffffffffffffffffffffff163373ffffffffffffffffffffffffffffffffffffffff1614610c70576040517f08c379a0000000000000000000000000000000000000000000000000000000008152600401610c67906120a7565b60405180910390fd5b6000845111610cb4576040517f08c379a0000000000000000000000000000000000000000000000000000000008152600401610cab90612113565b60405180910390fd5b600584511115610cf9576040517f08c379a0000000000000000000000000000000000000000000000000000000008152600401610cf0906121a5565b60405180910390fd5b6000805b8451811015610d3b57848181518110610d1957610d186121c5565b5b602002602001015182610d2c9190612027565b91508080600101915050610cfd565b5060008111610d7f576040517f08c379a0000000000000000000000000000000000000000000000000000000008152600401610d7690612266565b60405180910390fd5b600060046000815480929190610d9490612286565b91905055905060006005600083815260200190815260200160002060405180610120016040529081600082015481526020016001820160009054906101000a900473ffffffffffffffffffffffffffffffffffffffff1673ffffffffffffffffffffffffffffffffffffffff1673ffffffffffffffffffffffffffffffffffffffff1681526020016002820160009054906101000a900473ffffffffffffffffffffffffffffffffffffffff1673ffffffffffffffffffffffffffffffffffffffff1673ffffffffffffffffffffffffffffffffffffffff16815260200160038201805480602002602001604051908101604052809291908181526020016000905b82821015610f645783829060005260206000209060020201604051806040016040529081600082018054610ec990611c90565b80601f0160208091040260200160405190810160405280929190818152602001828054610ef590611c90565b8015610f425780601f10610f1757610100808354040283529160200191610f42565b820191906000526020600020905b815481529060010190602001808311610f2557829003601f168201915b5050505050815260200160018201548152505081526020019060010190610e96565b5050505081526020016004820154815260200160058201548152602001600682015481526020016007820160009054906101000a900460ff166004811115610faf57610fae611cc1565b5b6004811115610fc157610fc0611cc1565b5b81526020016007820160019054906101000a900460ff166002811115610fea57610fe9611cc1565b5b6002811115610ffc57610ffb611cc1565b5b8152505090508181600001818152505087816020019073ffffffffffffffffffffffffffffffffffffffff16908173ffffffffffffffffffffffffffffffffffffffff168152505033816040019073ffffffffffffffffffffffffffffffffffffffff16908173ffffffffffffffffffffffffffffffffffffffff168152505060028160e00190600481111561109557611094611cc1565b5b908160048111156110a9576110a8611cc1565b5b8152505060005b8751811015611170576005600084815260200190815260200160002060030160405180604001604052808a84815181106110ed576110ec6121c5565b5b6020026020010151815260200189848151811061110d5761110c6121c5565b5b6020026020010151815250908060018154018082558091505060019003906000526020600020906002020160009091909190915060008201518160000190816111569190612485565b5060208201518160010155505080806001019150506110b0565b50600061117c84611536565b905080826080018181525050858260a001818152505060008187866111a19190612027565b6111ab9190612027565b9050808360c0018181525050808b73ffffffffffffffffffffffffffffffffffffffff166370a08231336040518263ffffffff1660e01b81526004016111f19190611ecc565b602060405180830381865afa15801561120e573d6000803e3d6000fd5b505050506040513d601f19601f820116820180604052508101906112329190611efc565b1015611273576040517f08c379a000000000000000000000000000000000000000000000000000000000815260040161126a90611f75565b60405180910390fd5b808b73ffffffffffffffffffffffffffffffffffffffff1663dd62ed3e33600260009054906101000a900473ffffffffffffffffffffffffffffffffffffffff166040518363ffffffff1660e01b81526004016112d1929190612557565b602060405180830381865afa1580156112ee573d6000803e3d6000fd5b505050506040513d601f19601f820116820180604052508101906113129190611efc565b1015611353576040517f08c379a000000000000000000000000000000000000000000000000000000000815260040161134a906125cc565b60405180910390fd5b6113a233600260009054906101000a900473ffffffffffffffffffffffffffffffffffffffff16838e73ffffffffffffffffffffffffffffffffffffffff1661156b909392919063ffffffff16565b80600360008282546113b49190612027565b92505081905550600260009054906101000a900473ffffffffffffffffffffffffffffffffffffffff1673ffffffffffffffffffffffffffffffffffffffff163373ffffffffffffffffffffffffffffffffffffffff167fddf252ad1be2c89b69c2b068fc378daa952ba7f163c4a11628f55a4df523b3ef8360405161143a919061174b565b60405180910390a38973ffffffffffffffffffffffffffffffffffffffff163373ffffffffffffffffffffffffffffffffffffffff167fcadaf9b42a3cb458f775d1ac1d27fdd92f3658a99c17d54bd45190e50e58102284846040516114a19291906125ec565b60405180910390a3505050505095945050505050565b611531838473ffffffffffffffffffffffffffffffffffffffff1663a9059cbb85856040516024016114ea929190612615565b604051602081830303815290604052915060e01b6020820180517bffffffffffffffffffffffffffffffffffffffffffffffffffffffff83818316178352505050506115ed565b505050565b600061271060fa6fffffffffffffffffffffffffffffffff168361155a919061263e565b61156491906126af565b9050919050565b6115e7848573ffffffffffffffffffffffffffffffffffffffff166323b872dd8686866040516024016115a0939291906126e0565b604051602081830303815290604052915060e01b6020820180517bffffffffffffffffffffffffffffffffffffffffffffffffffffffff83818316178352505050506115ed565b50505050565b600080602060008451602086016000885af180611610576040513d6000823e3d81fd5b3d92506000519150506000821461162b576001811415611647565b60008473ffffffffffffffffffffffffffffffffffffffff163b145b1561168957836040517f5274afe70000000000000000000000000000000000000000000000000000000081526004016116809190611ecc565b60405180910390fd5b50505050565b6000604051905090565b600080fd5b600080fd5b6000819050919050565b6116b6816116a3565b81146116c157600080fd5b50565b6000813590506116d3816116ad565b92915050565b6000602082840312156116ef576116ee611699565b5b60006116fd848285016116c4565b91505092915050565b60008115159050919050565b61171b81611706565b82525050565b60006020820190506117366000830184611712565b92915050565b611745816116a3565b82525050565b6000602082019050611760600083018461173c565b92915050565b600073ffffffffffffffffffffffffffffffffffffffff82169050919050565b600061179182611766565b9050919050565b60006117a382611786565b9050919050565b6117b381611798565b81146117be57600080fd5b50565b6000813590506117d0816117aa565b92915050565b600080604083850312156117ed576117ec611699565b5b60006117fb858286016117c1565b925050602061180c858286016116c4565b9150509250929050565b61181f81611786565b811461182a57600080fd5b50565b60008135905061183c81611816565b92915050565b600080fd5b6000601f19601f8301169050919050565b7f4e487b7100000000000000000000000000000000000000000000000000000000600052604160045260246000fd5b61189082611847565b810181811067ffffffffffffffff821117156118af576118ae611858565b5b80604052505050565b60006118c261168f565b90506118ce8282611887565b919050565b600067ffffffffffffffff8211156118ee576118ed611858565b5b602082029050602081019050919050565b600080fd5b600080fd5b600067ffffffffffffffff82111561192457611923611858565b5b61192d82611847565b9050602081019050919050565b82818337600083830152505050565b600061195c61195784611909565b6118b8565b90508281526020810184848401111561197857611977611904565b5b61198384828561193a565b509392505050565b600082601f8301126119a05761199f611842565b5b81356119b0848260208601611949565b91505092915050565b60006119cc6119c7846118d3565b6118b8565b905080838252602082019050602084028301858111156119ef576119ee6118ff565b5b835b81811015611a3657803567ffffffffffffffff811115611a1457611a13611842565b5b808601611a21898261198b565b855260208501945050506020810190506119f1565b5050509392505050565b600082601f830112611a5557611a54611842565b5b8135611a658482602086016119b9565b91505092915050565b600067ffffffffffffffff821115611a8957611a88611858565b5b602082029050602081019050919050565b6000611aad611aa884611a6e565b6118b8565b90508083825260208201905060208402830185811115611ad057611acf6118ff565b5b835b81811015611af95780611ae588826116c4565b845260208401935050602081019050611ad2565b5050509392505050565b600082601f830112611b1857611b17611842565b5b8135611b28848260208601611a9a565b91505092915050565b600080600080600060a08688031215611b4d57611b4c611699565b5b6000611b5b888289016117c1565b9550506020611b6c8882890161182d565b945050604086013567ffffffffffffffff811115611b8d57611b8c61169e565b5b611b9988828901611a40565b935050606086013567ffffffffffffffff811115611bba57611bb961169e565b5b611bc688828901611b03565b9250506080611bd7888289016116c4565b9150509295509295909350565b600082825260208201905092915050565b7f41646472657373207a65726f206e6f7420616c6c6f7765640000000000000000600082015250565b6000611c2b601883611be4565b9150611c3682611bf5565b602082019050919050565b60006020820190508181036000830152611c5a81611c1e565b9050919050565b7f4e487b7100000000000000000000000000000000000000000000000000000000600052602260045260246000fd5b60006002820490506001821680611ca857607f821691505b602082108103611cbb57611cba611c61565b5b50919050565b7f4e487b7100000000000000000000000000000000000000000000000000000000600052602160045260246000fd5b7f556e617574686f72697a65642100000000000000000000000000000000000000600082015250565b6000611d26600d83611be4565b9150611d3182611cf0565b602082019050919050565b60006020820190508181036000830152611d5581611d19565b9050919050565b7f5472616465206973206e6f7420616374697665206f7220646f6573206e6f742060008201527f6578697374000000000000000000000000000000000000000000000000000000602082015250565b6000611db8602583611be4565b9150611dc382611d5c565b604082019050919050565b60006020820190508181036000830152611de781611dab565b9050919050565b7f50726f6475637420536869707065640000000000000000000000000000000000600082015250565b6000611e24600f83611be4565b9150611e2f82611dee565b602082019050919050565b60006020820190508181036000830152611e5381611e17565b9050919050565b7f4e487b7100000000000000000000000000000000000000000000000000000000600052601160045260246000fd5b6000611e94826116a3565b9150611e9f836116a3565b9250828203905081811115611eb757611eb6611e5a565b5b92915050565b611ec681611786565b82525050565b6000602082019050611ee16000830184611ebd565b92915050565b600081519050611ef6816116ad565b92915050565b600060208284031215611f1257611f11611699565b5b6000611f2084828501611ee7565b91505092915050565b7f496e73756666696369656e742062616c616e6365000000000000000000000000600082015250565b6000611f5f601483611be4565b9150611f6a82611f29565b602082019050919050565b60006020820190508181036000830152611f8e81611f52565b9050919050565b7f546869732070726f6475637420686173206e6f74206265696e672073656e742060008201527f666f722064656c69766572790000000000000000000000000000000000000000602082015250565b6000611ff1602c83611be4565b9150611ffc82611f95565b604082019050919050565b6000602082019050818103600083015261202081611fe4565b9050919050565b6000612032826116a3565b915061203d836116a3565b925082820190508082111561205557612054611e5a565b5b92915050565b7f53656c6c65722063616e206e6f74206275792074686569722070726f64756374600082015250565b6000612091602083611be4565b915061209c8261205b565b602082019050919050565b600060208201905081810360008301526120c081612084565b9050919050565b7f4174206c65617374206f6e652070726f64756374207265717569726564000000600082015250565b60006120fd601d83611be4565b9150612108826120c7565b602082019050919050565b6000602082019050818103600083015261212c816120f0565b9050919050565b7f596f752063616e206e6f74207472616465206d6f7265207468616e203520707260008201527f6f647563747320696e2061207472616465000000000000000000000000000000602082015250565b600061218f603183611be4565b915061219a82612133565b604082019050919050565b600060208201905081810360008301526121be81612182565b9050919050565b7f4e487b7100000000000000000000000000000000000000000000000000000000600052603260045260246000fd5b7f50726f6475637420746f6174616c2070726963652063616e6e6f74206265207a60008201527f65726f2065746865727300000000000000000000000000000000000000000000602082015250565b6000612250602a83611be4565b915061225b826121f4565b604082019050919050565b6000602082019050818103600083015261227f81612243565b9050919050565b6000612291826116a3565b91507fffffffffffffffffffffffffffffffffffffffffffffffffffffffffffffffff82036122c3576122c2611e5a565b5b600182019050919050565b600081519050919050565b60008190508160005260206000209050919050565b60006020601f8301049050919050565b600082821b905092915050565b60006008830261233b7fffffffffffffffffffffffffffffffffffffffffffffffffffffffffffffffff826122fe565b61234586836122fe565b95508019841693508086168417925050509392505050565b6000819050919050565b600061238261237d612378846116a3565b61235d565b6116a3565b9050919050565b6000819050919050565b61239c83612367565b6123b06123a882612389565b84845461230b565b825550505050565b600090565b6123c56123b8565b6123d0818484612393565b505050565b5b818110156123f4576123e96000826123bd565b6001810190506123d6565b5050565b601f8211156124395761240a816122d9565b612413846122ee565b81016020851015612422578190505b61243661242e856122ee565b8301826123d5565b50505b505050565b600082821c905092915050565b600061245c6000198460080261243e565b1980831691505092915050565b6000612475838361244b565b9150826002028217905092915050565b61248e826122ce565b67ffffffffffffffff8111156124a7576124a6611858565b5b6124b18254611c90565b6124bc8282856123f8565b600060209050601f8311600181146124ef57600084156124dd578287015190505b6124e78582612469565b86555061254f565b601f1984166124fd866122d9565b60005b8281101561252557848901518255600182019150602085019450602081019050612500565b86831015612542578489015161253e601f89168261244b565b8355505b6001600288020188555050505b505050505050565b600060408201905061256c6000830185611ebd565b6125796020830184611ebd565b9392505050565b7f416d6f756e74206973206e6f7420616c6c6f7765640000000000000000000000600082015250565b60006125b6601583611be4565b91506125c182612580565b602082019050919050565b600060208201905081810360008301526125e5816125a9565b9050919050565b6000604082019050612601600083018561173c565b61260e602083018461173c565b9392505050565b600060408201905061262a6000830185611ebd565b612637602083018461173c565b9392505050565b6000612649826116a3565b9150612654836116a3565b9250828202612662816116a3565b9150828204841483151761267957612678611e5a565b5b5092915050565b7f4e487b7100000000000000000000000000000000000000000000000000000000600052601260045260246000fd5b60006126ba826116a3565b91506126c5836116a3565b9250826126d5576126d4612680565b5b828204905092915050565b60006060820190506126f56000830186611ebd565b6127026020830185611ebd565b61270f604083018461173c565b94935050505056fea264697066735822122018977eb8814be91f3b995feb1532e45795019aadfbeb3dacc87ad6269fe9065564736f6c634300081a0033",
  "linkReferences": {},
  "deployedLinkReferences": {}
}